S01700004C616231315F5363686564756C65722E737265639E
S113000045C0000060C000005EC000005CC000008D
S11300105AC0000058C0000056C0000054C0000080
S113002052C0000050C000004EC000004CC0000090
S11300304AC000007EC0000046C0000044C000006A
S113004042C0000040C000003EC000003CC00000B0
S11300503AC0000038C0000036C0000034C00000C0
S113006032C0000030C000002EC000002CC00000D0
S11300702AC0000028C0000026C0000024C00000E0
S113008022C0000020C000001EC0000011241FBEBA
S1130090CFEFD0E4DEBFCDBF11E0A0E0B1E0EEE1F0
S11300A0F4E000E00BBF02C007900D92AA32B10742
S11300B0D9F721E0AAE2B1E001C01D92AD33B20745
S11300C0E1F75ED1AAC19CCF609300017093010156
S11300D08093020190930301609338017093390176
S11300E080933A0190933B0108958BE080938100C3
S11300F08DE790E0909389008093880082E080935C
S11301006F001092850010928400809100019091FC
S11301100101A0910201B0910301809338019093F1
S11301203901A0933A01B0933B018FB780688FBF28
S113013008951F920F920FB60F9211248F939F93DD
S1130140AF93BF938091380190913901A0913A0106
S1130150B0913B010197A109B109809338019093B3
S11301603901A0933A01B0933B01892B8A2B8B2B45
S113017099F481E080933C01809100019091010108
S1130180A0910201B0910301809338019093390149
S1130190A0933A01B0933B01BF91AF919F918F918E
S11301A00F900FBE0F901F901895181619065CF04B
S11301B00895000021503109E1F74F5F5F4F841724
S11301C0950719F4089540E050E027E033E0F1CFBB
S11301D05E9888B95F9A00005F9882E090E0E5CF6E
S11301E0089581E0F5CF0895813118F48158F0CF56
S11301F008958155EDCF089584E690E0D6DF88E335
S1130200E7DF86E0E5DF8FE0E3DF81E0E1DF8AE03E
S113021090E0CBCF08955E9A88B95F9A00005F980A
S113022081E090E0C2CF0895CF92DF92EF92FF92E7
S11302300F931F93CF93DF93CDB7DEB7A6970FB677
S1130240F894DEBF0FBECDBF26E2E4E0F1E0DE01AC
S1130250119601900D922A95E1F7009721F08130D3
S1130260910551F01DC080E180932C0110922B0167
S113027081E080932A0118C0DE011196FD010190EE
S11302800020E9F73197EA1BFB0B80912B0190E0EA
S113029031E020E08E179F0709F430E0832F922F7E
S11302A08130910509F05DC09CDFC0902C018C2D3C
S11302B09BDF8C2D99DFD0902B0100912A01D01661
S11302C0C0F41D2DCE0101967C01F70101900020A0
S11302D0E9F73197EE19FF09812F90E08E179F07F8
S11302E028F4F701E10FF11D808195DF1F5F1017DE
S11302F060F391E09C1558F4D11009C00F5F00938E
S11303002A01CA94C0922C0181E090E02AC0D01244
S11303100AC010922A0110922B0180E180932C01D3
S113032081E090E01EC0DE011196FD0101900020E5
S1130330E9F73197EA1BFB0B802F90E08E179F079C
S113034041F4C11006C0D394D0922B0181E090E017
S113035008C0D394D0922B010F5F00932A0181E04F
S113036090E0A6960FB6F894DEBF0FBECDBFDF9126
S1130370CF911F910F91FF90EF90DF90CF90089550
S11303808FEF87B918B88AB91BB8EDE2F1E0108293
S11303908EE591E0A0E0B0E081839283A383B483EF
S11303A085839683A783B08784E191E092878187D0
S11303B023DF6EE571E080E090E086DE96DECDE23C
S11303C0D1E04D815E816F81788589819A81AB818D
S11303D0BC81481759076A077B0761F48881E9855E
S11303E0FA85082E000C990B099588831D821E82BC
S11303F01F8218868D819E81AF81B885825A9E4F57
S1130400AF4FBF4F8D839E83AF83B88780913C01EC
S11104108823E1F310923C01D4CFF894FFCF7F
S113041E01000000435331323042206973204C6591
S113042E67656E642E2E2E207761697420666F7256
S10D043E2069742044415259210042
S9030000FC
