S01700004C616231315F5363686564756C65722E737265639E
S11300008AC00000A5C00000A3C00000A1C0000079
S11300109FC000009DC000009BC0000099C000006C
S113002097C0000095C0000093C0000091C000007C
S11300308FC0000078C100008BC0000089C00000A0
S113004087C0000085C0000083C0000081C000009C
S11300507FC000007DC000007BC0000079C00000AC
S113006077C0000075C0000073C0000071C00000BC
S11300706FC000006DC000006BC0000069C00000CC
S113008067C0000065C0000063C00000260158017D
S11300905801580158015801580158015801580194
S11300A05801580158015801580158015801580184
S11300B05801580158015801580158015801580174
S11300C05801580158015801580158015801580164
S11300D05801550158015801580158015801580157
S11300E05001580158015801580158015301290180
S11300F02C012F013201350138013B013E01410140
S11301005801580158015801580158015801440137
S113011047014A014D0111241FBECFEFD0E4DEBFD9
S1130120CDBF11E0A0E0B1E0E6EEF5E000E00BBFEA
S113013002C007900D92A430B107D9F721E0A4E0E2
S1130140B1E001C01D92A032B207E1F773D149C2F8
S113015057CF8FEE82B90000009B29C0019B29C0B4
S1130160029B29C0039B29C08FED82B90000009B2C
S113017026C0019B26C0029B26C0039B26C08FEB92
S113018082B90000009B23C0019B23C0029B23C0B3
S1130190039B23C08FE782B90000009B20C0019B12
S11301A020C0029B20C0039B20C080E0089581E30F
S11301B0089584E3089587E308958AE2089582E325
S11301C0089585E3089588E3089580E3089583E31B
S11301D0089586E3089589E3089583E2089581E408
S11301E0089582E4089583E4089584E40895CF9300
S11301F0DF93EC01AEDF80931A01209719F0219769
S113020049F010C091E040E0811101C090E0292F35
S1130210342F0AC091E040E0811101C090E0292F01
S1130220342F02C020E030E02115310521F02130C7
S1130230310521F03FC08FE185B93CC090E08534A1
S11302409105B0F5FC01EA5BFF4FC2C18FE185B9AE
S113025031C081E085B92EC082E085B92BC083E02E
S113026085B928C084E085B925C085E085B922C058
S113027086E085B91FC087E085B91CC088E085B9D0
S113028019C089E085B916C08AE085B913C08BE02E
S113029085B910C08CE085B90DC08DE085B90AC060
S11302A08EE085B907C015B805C08FE085B902C0D6
S11302B08BE185B9C901DF91CF9108956093000165
S11302C070930101809302019093030160931B01D9
S11302D070931C0180931D0190931E0108958BE07F
S11302E0809381008DE790E090938900809388004B
S11302F082E080936F0010928500109284008091B8
S1130300000190910101A0910201B0910301809339
S11303101B0190931C01A0931D01B0931E018FB784
S113032080688FBF08951F920F920FB60F92112409
S11303308F939F93AF93BF9380911B0190911C0166
S1130340A0911D01B0911E010197A109B1098093EB
S11303501B0190931C01A0931D01B0931E01892BD6
S11303608A2B8B2B99F481E080931F0180910001EB
S113037090910101A0910201B091030180931B01AE
S113038090931C01A0931D01B0931E01BF91AF91E6
S11303909F918F910F900FBE0F901F901895181674
S11303A019065CF00895000021503109E1F74F5F10
S11303B05F4F8417950719F4089540E050E027E053
S11303C033E0F1CF5E9888B95F9A00005F9882E0CD
S11303D090E0E5CF0895813118F48158F3CF089562
S11303E08155F0CF089584E690E0D9DF88E3EADF11
S11303F086E0E8DF8FE0E6DF81E0E4DF8AE090E09A
S1130400CECF08955E9A88B95F9A00005F9881E024
S113041090E0C5CF0895CF93DF93EC01892B31F49D
S113042081E0D9DF80911A018111ECDFCE01DF91E7
S1130430CF910895CF93DF9300D000D0CDB7DEB72E
S113044080EF81B98FE082B98FEF84B915B887B98D
S113045018B88AB91BB8AFE0B1E0BA83A983E4E065
S1130460F1E0FC83EB831C9242E350E060E070E037
S113047011964D935D936D937C9314970181128132
S11304802381348115960D931D932D933C931897D6
S113049087EF90E01A969C938E931997108284E6C6
S11304A090E0A0E0B0E081839283A383B48345838A
S11304B05683678370878BE092E0928781870F2E43
S11304C0F4E68F2E912CA12CB12CF02D52E340E0B8
S11304D030E020E002C04B015C01652F742F832FB4
S11304E0922FA501940152D0582D492D3A2D2B2D30
S11304F0611571058105910571F775DFC501B401B9
S1130500DDDEEDDE7E0185E0E80EF11CDE011196F4
S11305106D01F601019111916F01D80115964D916C
S11305205D916D917C91189711968D919D910D908F
S1130530BC91A02D481759076A077B0781F4F8017D
S113054080810184F285E02D082E000C990B099519
S1130550D8018C93F8011582168217821086F8014F
S113056085819681A781B085880D991DAA1DBB1D23
S113057085839683A783B087EC14FD0451F680919C
S11305801F018823E1F310921F01C0CFA1E21A2EAC
S1130590AA1BBB1BFD010DC0AA1FBB1FEE1FFF1F23
S11305A0A217B307E407F50720F0A21BB30BE40B73
S11305B0F50B661F771F881F991F1A9469F76095BA
S11305C07095809590959B01AC01BD01CF01089574
S11305D0EE0FFF1F0024001C0BBE0790F691E02DC8
S10905E00994F894FFCF1A
S10705E6010000000C
S9030000FC
