:100000008AC00000A5C00000A3C00000A1C000007D
:100010009FC000009DC000009BC0000099C0000070
:1000200097C0000095C0000093C0000091C0000080
:100030008FC00000DCC000008BC0000089C0000041
:1000400087C0000085C0000083C0000081C00000A0
:100050007FC000007DC000007BC0000079C00000B0
:1000600077C0000075C0000073C0000071C00000C0
:100070006FC000006DC000006BC0000069C00000D0
:1000800067C0000065C0000063C00000A501CB018F
:10009000CB01CB01CB01CB01CB01CB01CB01CB0100
:1000A000CB01CB01CB01CB01CB01CB01CB01CB01F0
:1000B000CB01CB01CB01CB01CB01CB01CB01CB01E0
:1000C000CB01CB01CB01CB01CB01CB01CB01CB01D0
:1000D000CB01C901CB01CB01CB01CB01CB01CB01C2
:1000E000C501CB01CB01CB01CB01CB01C701A801DD
:1000F000AB01AE01B101B301B501B701B901BB015B
:10010000CB01CB01CB01CB01CB01CB01CB01BD019D
:10011000BF01C101C30111241FBECFEFD0E4DEBF78
:10012000CDBF11E0A0E0B1E0E0EBF3E000E00BBFF9
:1001300002C007900D92A430B107D9F721E0A4E0E6
:10014000B1E001C01D92A930B207E1F7C1D02EC1C4
:1001500057CF8FEE88B90000309B29C0319B29C052
:10016000329B29C0339B29C08FED88B90000309B9A
:1001700026C0319B26C0329B26C0339B26C08FEB06
:1001800088B90000309B23C0319B23C0329B23C021
:10019000339B23C08FE788B90000309B20C0319B80
:1001A00020C0329B20C0339B20C080E0089581E3B3
:1001B000089584E3089587E308958AE2089582E329
:1001C000089585E3089588E3089580E3089583E31F
:1001D000089586E3089589E3089583E2089581E40C
:1001E000089582E4089583E4089584E408951F92B5
:1001F0000F920FB60F9211248F939F93AF93BF93DB
:100200008091040190910501A0910601B091070130
:100210000197A109B1098093040190930501A0936E
:100220000601B0930701892B8A2B8B2B99F481E06F
:10023000809308018091000190910101A091020139
:10024000B09103018093040190930501A0930601EE
:10025000B0930701BF91AF919F918F910F900FBE07
:100260000F901F9018958BE0809381008DE790E0B0
:10027000909389008093880082E080936F001092B1
:100280008500109284008091000190910101A0915D
:100290000201B09103018093040190930501A093A2
:1002A0000601B09307018FB780688FBF08956093F0
:1002B0000001709301018093020190930301609308
:1002C000040170930501809306019093070108953E
:1002D000CADF6AE070E080E090E0E9DF8FEF84B988
:1002E00015B880EF87B98FE088B90F2EFBE17F2E1C
:1002F000F02D0F2EFFE08F2EF02D0F2EFEE09F2E03
:10030000F02D0F2EFDE0AF2EF02D0F2EFCE0BF2EB6
:10031000F02D0F2EFBE0CF2EF02D0F2EFAE0DF2E6A
:10032000F02D0F2EF9E0EF2EF02D6894FF24F3F856
:1003300007E016E0D5E0C4E00CDF90E085349105DD
:1003400050F5FC01EA5BFF4F28C08FE185B9F4CF7F
:1003500081E085B9F1CF82E085B9EECF83E085B940
:10036000EBCFC5B9E9CFD5B9E7CF15B9E5CF05B919
:10037000E3CFF5B8E1CFE5B8DFCFD5B8DDCFC5B86D
:10038000DBCFB5B8D9CFA5B8D7CF95B8D5CF15B8ED
:10039000D3CF85B8D1CF75B8CFCFEE0FFF1F0024D4
:1003A000001C0BBE0790F691E02D0994F894FFCF46
:0403B0000100000048
:00000001FF
