S01700004C616231315F5363686564756C65722E737265639E
S11300008AC00000A5C00000A3C00000A1C0000079
S11300109FC000009DC000009BC0000099C000006C
S113002097C0000095C0000093C0000091C000007C
S11300308FC0000076C100008BC0000089C00000A2
S113004087C0000085C0000083C0000081C000009C
S11300507FC000007DC000007BC0000079C00000AC
S113006077C0000075C0000073C0000071C00000BC
S11300706FC000006DC000006BC0000069C00000CC
S113008067C0000065C0000063C000002401560181
S113009056015601560156015601560156015601A4
S11300A05601560156015601560156015601560194
S11300B05601560156015601560156015601560184
S11300C05601560156015601560156015601560174
S11300D05601530156015601560156015601560167
S11300E04E01560156015601560156015101270190
S11300F02A012D0130013301360139013C013F0150
S11301005601560156015601560156015601420147
S1130110450148014B0111241FBECFEFD0E4DEBFDF
S1130120CDBF11E0A0E0B1E0ECE6F4E000E00BBFED
S113013002C007900D92A630B107D9F721E0A6E0DE
S1130140B1E001C01D92A631B207E1F726D18CC1FE
S113015057CF8FEE88B90000309B29C0319B29C04E
S1130160329B29C0339B29C08FED88B90000309B96
S113017026C0319B26C0329B26C0339B26C08FEB02
S113018088B90000309B23C0319B23C0329B23C01D
S1130190339B23C08FE788B90000309B20C0319B7C
S11301A020C0329B20C0339B20C080E0089581E3AF
S11301B0089584E3089587E308958AE2089582E325
S11301C0089585E3089588E3089580E3089583E31B
S11301D0089586E3089589E3089583E2089581E408
S11301E0089582E4089583E4089584E40895CF9300
S11301F0DF93EC01AEDF209719F0219749F010C08E
S113020091E040E0811101C090E0292F342F0AC011
S113021091E040E0811101C090E0292F342F02C009
S113022020E030E02115310521F02130310521F0A5
S11302303FC08FE185B93CC090E085349105B0F5AD
S1130240FC01EA5BFF4F07C18FE185B931C081E052
S113025085B92EC082E085B92BC083E085B928C05A
S113026084E085B925C085E085B922C086E085B9DA
S11302701FC087E085B91CC088E085B919C089E032
S113028085B916C08AE085B913C08BE085B910C062
S11302908CE085B90DC08DE085B90AC08EE085B9C2
S11302A007C015B805C08FE085B902C08BE185B9D8
S11302B0C901DF91CF910895609302017093030106
S11302C080930401909305016093110170931201CE
S11302D0809313019093140108958BE0809381001F
S11302E08DE790E0909389008093880082E080936A
S11302F06F00109285001092840080910201909109
S11303000301A0910401B091050180931101909320
S11303101201A0931301B09314018FB780688FBFAB
S113032008951F920F920FB60F9211248F939F93EB
S1130330AF93BF938091110190911201A091130189
S1130340B09114010197A109B1098093110190930F
S11303501201A0931301B0931401892B8A2B8B2BC8
S113036099F481E080931501809102019091030139
S1130370A0910401B09105018093110190931201A1
S1130380A0931301B0931401BF91AF919F918F91EA
S11303900F900FBE0F901F9018958FEF84B915B86A
S11303A080EF87B98FE088B9E6E0F1E0108282E35C
S11303B090E0A0E0B0E081839283A383B48385833B
S11303C09683A783B08787EF90E092878187E09137
S11303D00001F0910101C180D280E380F480C70163
S11303E0B6016ADF7ADFC0910001D09101014D812D
S11303F05E816F81788589819A81AB81BC81481740
S113040059076A077B0781F48881E985FA85082EF4
S1130410000C990B09958883E0910001F09101018A
S11304201582168217821086E0910001F091010175
S113043085819681A781B0858C0D9D1DAE1DBF1D44
S113044085839683A783B087809115018823E1F380
S113045010921501C8CFEE0FFF1F0024001C0BBE25
S10F04600790F691E02D0994F894FFCF6A
S109046C0601010000007E
S9030000FC
